:020000040800F2
:1000000000200020DD010008E3010008E7010008EE
:1000100000000000000000000000000000000000E0
:100020000000000000000000000000001D020008A9
:10003000000000000000000021020008F105000897
:100040002D020008000000002D0200082D0200080B
:100050002D0200082D0200082D0200082D020008C4
:10006000000000002D0200082D0200082D020008EB
:100070002D0200082D0200082D02000800000000DB
:100080002D02000800000000000000002D02000802
:100090002D0200082D0200082D0200082D02000884
:1000A0002D0200082D0200082D0200082D02000874
:1000B0002D02000800000000000000000000000009
:1000C0005FF808F130B583B000F03EF9314B324AA9
:1000D0001360324A1360324B324A33498B4204D2A6
:1000E0001168196004330432F7E72B4B1A682F4B61
:1000F0009A4200D0FEE7294B1A682D4B9A42F9D15B
:10010000244B2C4A13602C4A13602C4B02E0002233
:100110001A6004332A4A9342F9D3264B1B68002BFA
:1001200003D1254B1B68002B00D0FEE700F010F92F
:10013000694601A800F0B6F8224C234BE41AA4103B
:100140000025AC4214DC214C214BE41AA4100025FC
:10015000AC4213DC0099019800F0C4FB05001D4C73
:100160001D4BE41AA410002C0EDC280000F074F8DB
:10017000AA00154BD35898470135E2E7AA00144B63
:10018000D35898470135E3E7013CA200124BD358FE
:100190009847E8E7BABADECA0000002088000020CD
:1001A00000000020C01600088C0000207856341291
:1001B000325476988C000020280100208C0000200A
:1001C0002C010020580200085802000858020008BC
:1001D00058020008580200085802000810B5FFF73E
:1001E00071FF00BEFEE704207146084202D0EFF323
:1001F000098001E0EFF3088071460B4A104770B5A3
:1002000004000D00044800F055F82900200000F01B
:10021000A3F800BEFEE7C046C413000800BEFEE718
:1002200000BEFEE770470000FF01000800BEFEE7C9
:10023000C0160008000000208C000020C016000836
:1002400000000000000000008C0000202C010020B5
:080250000000000000000000A6
:10025800FEE7000010B503000D4A1268002A0BD013
:100268000B4A1068033303229343C318094A934285
:1002780006D8074A136010BD054A07491160EFE721
:1002880000F01EFC0C23036001204042F3E7C04647
:1002980090000020001C00202C0100200123036096
:1002A800014B0B607047C046040000200FB400B536
:1002B80083B004AB04CB01938021064800F032FCE4
:1002C800002803DD0100034800F036F803B008BC3D
:1002D80004B0184798000020F0B5C64600B586B0AF
:1002E800040001914356002B01D0019F1CE0042615
:1002F800301C211CABBE041C019806B004BC9046FF
:10030800F0BD0022A25602A9CA5401330134B342F7
:10031800F7D302AA904600224146CA540425281C55
:100328004146ABBE8046BF1B002FE5D03E00102FD4
:1003380000D910260023EAE710B5FFF7CDFF10BD5E
:1003480010B500F0A3F810BD10B500F0D1F810BD3D
:1003580070B504000D001548FFF7A8FF2168144880
:10036800FFF7A4FF61681348FFF7A0FFA1681248D0
:10037800FFF79CFFE1681148FFF798FF21691048D3
:10038800FFF794FF61690F48FFF790FFA1690E48D6
:10039800FFF78CFFE1690D48FFF788FF0C48FFF76E
:1003A80085FF29000B48FFF781FF70BD1413000873
:1003B80024130008341300084413000854130008D9
:1003C80064130008741300088413000894130008C9
:1003D800A4130008AC13000882B000230193009313
:1003E800274A116880235B020B431360244B1B6868
:1003F8008022920213400093019B01330193009BDA
:10040800002B04D1019AA023DB019A42EED11C4BA8
:100418001B689B0306D501230093009B012B04D086
:1004280002B0704700230093F7E7164B11221A60B9
:10043800134B5A685A605A685A605A6812490A40F7
:100448005A605968882252030A435A601968802200
:1004580052040A431A600A4B1B689B01FBD5084BE0
:100468005A6803218A435A605A6801390A435A6014
:10047800034B5A680C231340082BF9D1D0E7C04628
:100488000010024000200240FF7FC0FF10B5124B51
:100498001A6801210A431A605A68104802405A60D3
:1004A8001A680F4802401A601A680E4802401A601B
:1004B8005A680D4802405A60DA6A0F208243DA62AD
:1004C8001A6B0A4802401A635A6B8A435A6300221D
:1004D8009A60FFF781FF10BD001002400CB8FF08BA
:1004E800FFFFF6FEFFFFFBFFFFFFC0FFACFEFFFFB5
:1004F80010B5214B5A680C231340042B17D0082B36
:1005080019D0002B03D01D4B1D4A1A6002E01B4B6B
:100518001B4A1A60184B5A6812090F231340194ACC
:10052800D35CDBB2154A1168D940116010BD134B7A
:10053800134A1A60EEE7104B58685A68C0235B02EA
:10054800800C0F24044002341A4209D163011B1B9A
:100558009801C01AC00004192302084A1360D9E799
:10056800054BDB6A0F2119400131054800F01CFAE0
:100578004443024B1C60CDE7001002401C000020E1
:1005880000127A000C0000200249012008600A7855
:1005980010467047200000200268CA4001231A4014
:1005A800100070470368CB40521A01320121914074
:1005B80001390B401800704701228A4003689343B1
:1005C8000360704701228A40036813430360704741
:1005D800044B1B68002B03D0024A1368013B1360CD
:1005E8007047C0462401002010B5FFF7F1FF10BD89
:1005F80001228A400368534003607047491A013159
:10060800021C06D0921A41430138FBD1921A5018A5
:100618007047491A481C7047F0B4421E0ED0491A58
:10062800921A013101328B18C31A07D0241BA4185F
:100638005218491A0919013BF8D103E0001A013090
:10064800F0BC7047491A8818F0BC704770B586B07E
:100658001748FFF72BFE0E20FFF7DEFF01001548B5
:10066800FFF724FE0620FFF7C9FF01001248FFF735
:100678001DFE03A8114A1300010034CB34C169469A
:100688000A0070CB70C2032200F081F9002308E051
:100698005C1C9B0003AA9A5821000948FFF706FE34
:1006A8002300022BF4DD0748FFF700FE06B070BDFB
:1006B80024160008481600085C160008D413000821
:1006C800701600088416000800B583B03048FFF79C
:1006D800EDFD00230193012101A8FFF773FF019BA2
:1006E800022B3CD02B48FFF7E1FD042301930221A4
:1006F80001A8FFF761FF0199002934D12648FFF7C7
:10070800D5FD05230193002101A8FFF771FF019B87
:10071800042B2CD02148FFF7C9FD002101A8FFF7C1
:100728003BFF002827D11E48FFF7C0FD3523019362
:100738000422012101A8FFF735FF0A281FD0010074
:100748001848FFF7B3FDFFF71FFF00281BD1164815
:10075800FFF7ACFD1548FFF7A9FD03B000BD14482D
:10076800FFF7A4FDC1E71348FFF7A0FDC9E712484A
:10077800FFF79CFDD1E71148FFF798FDD6E7104831
:10078800FFF794FDDFE70F48FFF790FDE2E7C0466B
:100798000414000838140008481400088C140008D1
:1007A800A8140008E41400081C15000884160008A2
:1007B800281400085814000878140008B814000811
:1007C800D01400080815000870B5B2B03448FFF717
:1007D8006DFD2EAC334B220023CB23C219001B889E
:1007E80013808B78937005227521200000F0A2F801
:1007F80021002D48FFF75AFD2AA92C4B0A0031CBBE
:1008080031C21B6813600A2211A800F08AF811A9E6
:100818002748FFF74BFD274B1093274B0F930222D6
:100828000FA910A800F068F80100244C2000FFF779
:100838003DFD0BA9224B0A0061CB61C218001B8841
:1008480013808378937006A800F091F806A91D48D4
:10085800FFF72CFD04A81C4B020022CB22C202A9E0
:100868001A4B0A0060CB60C200F06CF8010020004F
:10087800FFF71CFD164B1A6800929A8869468A8011
:100888009B798B71684600F079F802006946114837
:10089800FFF70CFD1048FFF709FD32B070BDC046E8
:1008A80034150008DC1500085C150008EC15000874
:1008B80068150008313235003132340080150008DF
:1008C800FC150008901500080C16000814160008FE
:1008D8001C160008A0150008B815000810B5FFF789
:1008E800B5FEFFF7F1FEFFF76FFF0248FFF7DEFCEA
:1008F80010BDC046EC130008F0B4002A09D00378F4
:100908000C78013001311D1B01D006D403D5013A02
:10091800F5D1002003E0012001E000200138F0BCFF
:100928007047002A05D00D78057001310130013A71
:10093800F9D17047002A04D0030001700130013A50
:10094800FBD17047F0B403780C78002B07D0002C4B
:1009580005D0013001311D1BF5D004D401D500208C
:1009680003E0012001E000200138F0BC70470A686C
:10097800026004300431002AF9D17047002102785E
:10098800002A02D001300131F9E708007047F0B4BD
:10099800003A07D003680C681D190560043004315B
:1009A800013AF7D1F0BC7047002243088B4274D358
:1009B80003098B425FD3030A8B4244D3030B8B4258
:1009C80028D3030C8B420DD3FF22090212BA030C61
:1009D8008B4202D31212090265D0030B8B4219D342
:1009E80000E0090AC30B8B4201D3CB03C01A524162
:1009F800830B8B4201D38B03C01A5241430B8B42AA
:100A080001D34B03C01A5241030B8B4201D30B0392
:100A1800C01A5241C30A8B4201D3CB02C01A5241B9
:100A2800830A8B4201D38B02C01A5241430A8B427C
:100A380001D34B02C01A5241030A8B4201D30B0265
:100A4800C01A5241CDD2C3098B4201D3CB01C01A7F
:100A5800524183098B4201D38B01C01A5241430989
:100A68008B4201D34B01C01A524103098B4201D377
:100A78000B01C01A5241C3088B4201D3CB00C01AE4
:100A8800524183088B4201D38B00C01A524143085C
:100A98008B4201D34B00C01A5241411A00D2014681
:100AA800524110467047FFE701B5002000F006F8F4
:100AB80002BDC0460029F7D076E770477047C046A8
:100AC800014B18687047C0462400002030B5140058
:100AD8009BB005001A00002C05DA8B230360012067
:100AE80040421BB030BD822368469B0083810023AF
:100AF800009104919C4200D0631E02930593012348
:100B080069465B42CB8128001E9B00F079F8431CA4
:100B180001DA8B232B60002CE3D00023009A13709A
:100B2800DFE7000007B5009313000A000100024840
:100B38000068FFF7CBFF0EBD24000020F0B58E68DB
:100B480085B007000C00039201939E423CD8902385
:100B58008A89DB001A4234D00325096923685B1AA5
:100B68000293636902985D43EB0F5D19019B6D1059
:100B780001331B18AB4200D91D00530532D529009B
:100B8800380000F023FB061E09D10C233B604023EC
:100B98000120A28940421343A38105B0F0BD029A07
:100BA800216900F0ACFAA389144A1A408023134340
:100BB800A381029B2661F61826606561019EED1AE5
:100BC800A560019B9E4200D9019E320003992068CE
:100BD80000F09EFAA36800209B1BA36023689E195F
:100BE8002660DAE72A00380000F04EFB061EE0D146
:100BF8002169380000F0A0FAC7E7C0467FFBFFFF75
:100C0800F0B5A1B003901D008B890F0016001B06DC
:100C180011D50B69002B0ED1402100F0D7FA3860AE
:100C28003861002805D10C23039A0138136021B0DC
:100C3800F0BD40237B61002308AC636120336376F9
:100C48001033A376079535002B78002B01D0252B80
:100C580046D1AB1B05930CD0320039000398FFF73F
:100C68006DFF431C00D1AEE06269059B9446634466
:100C780063612B78002B00D1A5E0012200235242AA
:100C8800626004A9543252186E1C2360E360A360AA
:100C98001370A36531780522534800F025FA751CB6
:100CA80000281FD12268D30604D5532304A95B1852
:100CB80020211970130704D5532304A95B182B218D
:100CC800197033782A2B16D0350000210A20E368E2
:100CD8002A786E1C303A092A4ED9002918D010E01B
:100CE8000135B1E7404B2268C01A01238340134302
:100CF80023602E00CEE7079B191D1B680791002B68
:100D080001DB0B9304E05B42E3600223134323609F
:100D18002B782E2B0AD16B782A2B35D1079B0235DD
:100D28001A1D1B680792002B2BDB09932F4E29787D
:100D38000322300000F0D8F9002806D04023801B99
:100D48008340226801351343236029780622284806
:100D58006E1C217600F0C8F900283CD0254B002BEA
:100D680025D10722079B0733934308330793636909
:100D7800049A9B18636166E7434301219B18350079
:100D8800A6E701235B42D0E700230A201A000135B9
:100D9800636029786E1C3039092903D9002BC5D026
:100DA8000992C3E74243012352183500F1E707AB24
:100DB80000933A00104B2100039800E000BF049014
:100DC800049B0133D3D1BB890D985B0600D42EE771
:100DD800012040422BE707AB00933A00064B210065
:100DE800039800F079F8EAE78C16000892160008D4
:100DF8009616000800000000450B0008F7B515001E
:100E080001938A680B6900900C00934200DA130082
:100E180022002B6043321278002A01D001332B6064
:100E280023689B0602D52B6802332B6006272368AC
:100E38001F4027D0230043331B785A1E9341226852
:100E4800920630D42200019943320098089EB04798
:100E5800431C25D0062320682A68E1680340002542
:100E6800042B03D18D1AEB43DB171D40A3682269BD
:100E7800934201DD9B1AED180027BD4220D10020C6
:100E880010E00137E3682A689B1ABB42D2DD2200D2
:100E98000123193201990098089EB047431CF0D1EC
:100EA80001204042FEBD3020E11843310870210086
:100EB8005A1C45310978A218433202331170C1E730
:100EC800220001231A3201990098089EB047431C5A
:100ED800E6D00137D1E70000F0B589B004920A00E6
:100EE80043320593039002920A7E0C000E9B6E2AF1
:100EF80000D186E01FD8632A33D008D8002A00D151
:100F08008CE0582A4DD0250042352A7030E0642AFA
:100F180001D0692AF7D1196825680A1D280629D53C
:100F280008681A60002803DA2D23029A40421370D9
:100F38006B4E0A274FE0732A74D008D86F2A1FD047
:100F4800702AE0D1202209680A43226003E0752A4A
:100F580016D0782AD7D12200782145321170614EF7
:100F680022E025001A684235111D196013682B709C
:100F7800012365E008681A606906D3D500B2D1E795
:100F880019682568081D186008682E0605D5544E8E
:100F980008276F2A1BD00A2719E06D06F7D580B2FB
:100FA800F5E745314E4E0A7018682268011D006841
:100FB8001960150621D5D30702D520231A432260CC
:100FC8001027002803D1202322689A432260230097
:100FD800002243331A706368A360002B58DB042295
:100FE800216891432160002854D1029D002B5AD0DA
:100FF8002500337842352B7055E05506DBD580B295
:10100800D9E71A680D68101D4969186013682E061B
:1010180001D5196002E06D06FBD519800023029DF9
:1010280023614FE01A68111D196015680021626874
:10103800280000F059F8002801D0401B6060636860
:1010480023610023029A13703CE023692A00049963
:101058000398059DA847431C3ED023689B0715D4D9
:10106800079BE068984239DA180037E0220001232C
:10107800193204990398059EB047431C2CD00135BA
:10108800E368079A9B1AAB42F0DCE9E70025F7E72B
:101098000028ADD0029D3900FFF70CFD735C013DBF
:1010A8002B700028F7D1082F09D12368DB0706D554
:1010B80063682269934202DC3023013D2B70029B56
:1010C8005B1B2361059B07AA00932100049B0398DF
:1010D800FFF794FE431CB8D10120404209B0F0BD8F
:1010E8009D160008AE160008C9B28218904201D1B8
:1010F8000020704703788B42FBD00130F6E70023CD
:1011080010B59A4200D110BDCC5CC4540133F8E745
:1011180010B5884202D98B18984203D3002307E000
:101128008B5C8354013AFBD210BDCC5CC4540133B0
:101138009A42FAD1F8E7000070B50500002910D0EE
:101148000C1F2368002B00DAE418280000F0D4F8FC
:101158001D4A1368002B05D163601460280000F055
:10116800CCF870BDA34209D9216860188342F3D135
:1011780018685B6841182160EEE713005A68002A76
:1011880001D0A242F9D919685818A0420BD1206899
:101198000918581819608242E0D11068526841183D
:1011A80019605A60DAE7A04202D90C232B60D5E710
:1011B80021686018824203D1106852684118216082
:1011C80062605C60CAE7C04618010020032370B55E
:1011D800CD1C9D43083506000C2D1ED20C25A942B6
:1011E8001DD8300000F088F8254A1468210000292D
:1011F80019D1244C2368002B03D1300000F06AF881
:1012080020602900300000F065F8431C2BD10C2326
:101218003000336000F071F803E0002DDFDA0C23B2
:101228003360002070BD0B685B1B19D40B2B03D9EE
:101238000B60CC18256003E04B688C420DD113601D
:10124800300000F05AF8200007220B30231D90438D
:10125800C31AE7D05A42E250E4E763600C00EFE7B4
:101268000C004968C3E70323C41C9C43A042E1D097
:10127800211A300000F02EF8431CDBD1C7E7C04626
:10128800180100201C010020F8B507000D00160009
:10129800002905D11100FFF799FF04002000F8BDCF
:1012A800002A03D1FFF748FF3400F7E700F026F8DB
:1012B8002C00B042F2D231003800FFF787FF041E3D
:1012C800ECD029003200FFF71AFF29003800FFF799
:1012D80033FFE3E7002370B5064C050008002360E0
:1012E800FEF7B8FF431C03D12368002B00D02B6006
:1012F80070BDC04620010020704770470B1F1B6857
:10130800181F002B01DA0B58C0187047537461631B
:101318006B206672616D653A0A0000002052302029
:101328003D2020253038580A000000002052312086
:101338003D2020253038580A000000002052322075
:101348003D2020253038580A000000002052332064
:101358003D2020253038580A000000002052313244
:10136800203D20253038580A00000000204C52202B
:101378003D2020253038580A000000002050432026
:101388003D2020253038580A0000000020505352D4
:10139800203D20253038580A000000004D6973634D
:1013A8000A000000204C522F4558435F52455455BF
:1013B800524E3D20253038580A0000005B486172C3
:1013C800644661756C745D0A00000000010000004D
:1013D80002000000030000000400000005000000F7
:1013E800060000000A5465737465732066696E61AF
:1013F8006C697A61646F2E2E2E2E0A000A5465736A
:1014080074616E646F204F70657261C3A7C3B56560
:1014180073206465204269742E2E2E2E0A00000067
:101428005365744269742829206F6B0A0000000014
:101438005365744249542046414C484F550A0000B0
:1014480052657365744269742829206F6B0A00001D
:101458005265736574426974282920256C752020AB
:1014680066616C686F750A2D2D2D2D0A000000002D
:10147800546F67676C65744269742829206F6B0A1A
:1014880000000000546F67676C657442697428290E
:101498002066616C686F750A2D2D2D0A000000000A
:1014A800526561644269742829206F6B0A00000044
:1014B8005265616442697428292066616C686F7599
:1014C8000A2D2D2D2D0A000052656164426974535E
:1014D8006C6963652829206F6B0A00005265616496
:1014E800426974536C69636528292066616C686F6A
:1014F80075206C3D256C750A2D2D2D0A0000000005
:101508004973204C6974746C6520456E6469616E1A
:101518000A0000004973206E6F74204C697474656A
:1015280020456E6469616E0A000000000A54657304
:1015380074616E646F204F70657261C3A7C3B5652F
:1015480073206465204D656DC3B37269612E2E2EBC
:101558002E0A00006E6577203D2025730A000000E2
:101568004973736F20666F6920636F706961646F78
:101578003A2025730A000000526573756C74616423
:101588006F203D2025640A006D7973747263707949
:10159800203D2025730A000054616D616E686F203C
:1015A800646520257320C3A92025640A0000000073
:1015B8004F70657261C3A7C3B56573206465206DFC
:1015C800656D6F7269612066696E616C697A6164C4
:1015D8006F0A0000616E746573206465207365741A
:1015E80061720000566F7520636F70696172206EBA
:1015F800C3A36F00736F7520756D61207374726972
:101608006E670000737472696E673500737472696F
:101618006E6736006C656E31323300000A546573AC
:1016280074616E646F204F70657261C3A7C3B5653E
:1016380073204E6F726D6169732E2E2E2E0A000074
:101648004669626F6E61636369203134203D2025ED
:101658006C750A004661746F7269616C2036203DB2
:1016680020256C750A000000536F6D61646F73204C
:101678002564203D2025640A000000000A2D2D2D38
:101688002D2D0A00232D302B2000686C4C00656638
:1016980067454647003031323334353637383941BB
:1016A80042434445460030313233343536373839D1
:0716B80061626364656600D6
:1016C0007856341294000020000000000000000052
:1016D000000000000102030406070809006CDC0298
:1016E00001000000280000200000000000000000B1
:1016F00000000000000000000000000000000000EA
:1017000000000000000000000000000000000000D9
:1017100000000000000000000000000000000000C9
:1017200000000000000000000000000000000000B9
:1017300000000000000000000000000000000000A9
:0C17400000000000000000003254769809
:04000005080000C52A
:00000001FF
